:0400000065EF09F0AF
:08000800046ED8CF05F0E0CF33
:1000100006F00001E9CF0CF0EACF07F0E1CF08F0DD
:10002000E2CF09F0D9CF0AF0DACF0BF0F3CF12F01C
:10003000F4CF13F0FACF14F0F5CF15F0F6CF16F099
:10004000F7CF17F000C00EF001C00FF002C010F0A3
:1000500003C011F0F2AA30EF00F0F2B4BFEF01F0EC
:10006000A0A236EF00F0A1B273EF01F09DAA3CEF21
:1000700000F09EBAEAEF01F00EC000F00FC001F0F0
:1000800010C002F011C003F00CC0E9FF07C0EAFF86
:10009000078E08C0E1FF09C0E2FF0AC0D9FF0BC00C
:1000A000DAFF12C0F3FF13C0F4FF14C0FAFF15C04B
:1000B000F5FF16C0F6FF17C0F7FF045006C0E0FFBB
:1000C00005C0D8FF1000F76AD60FF66E000EF722B3
:1000D0000900F550120000C1814001C0804101C0FB
:1000E000804100C1814001C0804100C1814000C108
:1000F000814001C0804101C0804100C1814000C1F8
:10010000814001C0804100C1814001C0804101C0E7
:10011000804100C1814001C0804100C1814000C1D7
:10012000814001C0804100C1814001C0804101C0C7
:10013000804100C1814000C1814001C0804101C0B7
:10014000804100C1814001C0804100C1814000C1A7
:10015000814001C0804101C0804100C1814000C197
:10016000814001C0804100C1814001C0804101C087
:10017000804100C1814000C1814001C0804101C077
:10018000804100C1814001C0804100C1814000C167
:10019000814001C0804100C1814001C0804101C057
:1001A000804100C1814001C0804100C1814000C147
:1001B000814001C0804101C0804100C1814000C137
:1001C000814001C0804100C1814001C0804101C027
:1001D000804100C18140F76AE60FF66E010EF722FA
:1001E0000900F550120000C0C101C30302C2C606D7
:1001F00007C705C5C404CC0C0DCD0FCFCE0E0ACA5F
:10020000CB0BC90908C8D81819D91BDBDA1A1EDEAE
:10021000DF1FDD1D1CDC14D4D515D71716D6D2125E
:1002200013D311D1D010F03031F133F3F23236F66E
:10023000F737F53534F43CFCFD3DFF3F3EFEFA3A1E
:100240003BFB39F9F83828E8E929EB2B2AEAEE2EAE
:100250002FEF2DEDEC2CE42425E527E7E62622E21E
:10026000E323E12120E0A06061A163A3A26266A66E
:10027000A767A56564A46CACAD6DAF6F6EAEAA6ADE
:100280006BAB69A9A86878B8B979BB7B7ABABE7E2E
:100290007FBF7DBDBC7CB47475B577B7B67672B2DE
:1002A000B373B17170B0509091519353529296566E
:1002B0005797559594549C5C5D9D5F9F9E5E5A9A9E
:1002C0009B5B99595898884849894B8B8A4A4E8E2E
:1002D0008F4F8D4D4C8C448485458747468682429E
:1002E000438341818040B10EB36EE00EB26E39504F
:1002F000FF0809E303E13850F40805E30A0E382645
:10030000000E392202D039683868472AD8B4482A02
:10031000485203E14750630802E2486A476A452AA7
:10032000D8B4462A455070080DE1465017080AE136
:10033000466A456A363C03D0373C01D003D0362AA2
:10034000D8B4372A435203E1939A8A9A03D0939AF6
:100350008A8A4306445203E193988A9803D093987B
:100360008A884406A1923CEF00F0F29A01016F5393
:1003700004E0D76AD66AF294F28A000112004A5069
:1003800002080AE14B5208E14C5206E149B004D0A0
:10039000020E4E5E498001D049904C684B684A6A13
:1003A00001016F6B0001E1DFF2943CEF00F04C5073
:1003B00001016F19706F036A7051000184DE016ED4
:1003C0004B5001184C6E036A01017051000103DFAC
:1003D0004B6E12009EAAFED7AECF6EF1010149B05E
:1003E0002AD04A5208E14C684B686EC14DF04A2A47
:1003F0004E6A506A16D04A2C04D06EC14FF04A2A79
:1004000010D04A5002080DE14E3C02D0FE0E4E6E56
:10041000510E4E24E96EEA6AD8B0EA2A6EC1EFFFA7
:100420004E2A6EC16FF10001C2DF010E01016F6F34
:1004300000019BDF01019E9A00013CEF00F0010EDC
:10044000EA6E520EE96EEF5011E0020E016EBF0E21
:10045000006E0400002EFDD7012EF9D7960E006E17
:10046000002EFED700D00400EF2EEFD768EF02F089
:10047000600ED36E9B6A646A0F015C51800B5C6FE7
:10048000000E5D6FC196C198C19AD1805D691F0E43
:100490005C6F436A446A2F6A2E6A316A306A336A33
:1004A000326A356A346A376A366A396A386A3A6A49
:1004B000B06A070EB16EB10EB36EE00EB26EA082DE
:1004C000010E5B6FF19E0E0E0101526F0001B7D756
:1004D00094EF09F001015A6B59C103F05851D8B497
:1004E000590758075B6F03C05CF15B5302E15C5333
:1004F00032E057C103F05651E96E03C0EAFF55518F
:10050000036E5451542BD8B4552B5D6F03C05EF16C
:10051000F2CF5FF1F29E5EC175FF5DC174FF7F9CFB
:100520007F9E7F8073505FBFF28EEF6E57C103F0E6
:100530005651E96E03C0EAFFEFCF5BF15AC16CF18F
:100540005BC16DF16C516D19016E01C05AF1562BF2
:10055000D8B4572BC1D75AC101F0000152EF03F0B4
:1005600001016A6B69C103F06851D8B46907680773
:100570006B6F03C06CF16B5302E16C533EE067C1DB
:1005800003F06651E96E03C0EAFFEFCF6BF16AC179
:100590006CF16BC16DF16C516D19016E01C06AF1A6
:1005A0006551036E6451642BD8B4652B6B6F03C027
:1005B0006CF16751036E6651662BD8B4672BE96EF8
:1005C00003C0EAFFEFCF6DF16CC175FF6BC174FF23
:1005D0006DC173FF7F9C7F9E7F84F250006EF29E00
:1005E0000F01550E7E6EAA0E7E6E7F827FB2FED701
:1005F0007F940050F2120101B5D76AC101F00001E9
:1006000012EF03F00101636B200E626F656B020E47
:10061000646F63C167F162C166F1696B0E0E686F4A
:1006200000019ED701C061F1756A746A61C173FFF0
:100630007F9C7F9E7F84F250006EF29E0F01550ECC
:100640007E6EAA0E7E6E7F827FB2FED77F940050B0
:10065000F21200011200960E436E610E206E280EFB
:10066000216E226A5A0E236E080E256EAE0E246E7F
:10067000266A276A286A296A2A6A2B6A2C6A2D6ADE
:10068000C1DF12000101536B200E526F556B020E39
:10069000546F53C157F152C156F1596B0E0E586F3A
:1006A000000118D701C051F1F2CF52F1F29E756AE4
:1006B000746A7F9C7F9E7F807350010152BFF28ECF
:1006C000515D06E12050600803E220507A0803E201
:1006D0000001C1DF0101000196EF09F09EAA04D0DC
:1006E0009EAAFED7AE50FAD7949A8B9A9D8A120092
:1006F000F5DFC40ED56EC00EF2129FEF09F049B0BF
:1007000004D0000E016E0AD006D04FAE04D051C006
:1007100050F0010E4E6E4990010E016E55EF08F03B
:1007200001015A5102080FE2FF0A03E15951E7089B
:100730000AE25C51030807E303E15B51F80803E3B5
:10074000010E016E0AD05C5306E15B510F0803E312
:10075000010E016E02D0000E016E00018BEF08F059
:10076000949A8B8A9D9AD2EF03F09EA8FED7AD6E25
:10077000BEEF03F0010163510001F7D7196AF2BE21
:10078000198EF29E63C16FF112DE19BEF28E040063
:10079000440E006E002EFED700D012004C684B684D
:1007A0004990DED70400F20E006E002EFED700D076
:1007B00061C163F1DFDF62C163F1DCDF12004CC0B5
:1007C00062F14BC061F162C163F1D4DF61C163F1D9
:1007D000D1DFACA2FED70400F20E006E002EFED7D1
:1007E00000D07CDF4C684B68120001015851800931
:1007F0005B6F59C15CF157C161F1626F0001CEDFDF
:100800005AC163F1B7DFDBDF12002F6A2E6A316A4B
:10081000306A336A326A75EF05F001016351006E88
:100820006451036E035005E100520001D8B402D1B7
:100830000101035006E1010E005C0001D8B400D1B3
:100840000101035006E1020E005C0001D8B4FED0A5
:100850000101035006E1030E005C0001D8B4FCD096
:100860000101035006E1040E005C0001D8B4FAD087
:100870000101035006E1050E005C0001D8B4F8D078
:100880000101035006E1060E005C0001D8B4F6D069
:100890000101035006E1070E005C0001D8B4F4D05A
:1008A0000101035006E1080E005C0001D8B4F2D04B
:1008B0000101035006E1090E005C0001D8B4F4D038
:1008C0000101035006E10A0E005C0001D8B4F8D023
:1008D0000101035006E10B0E005C0001D8B4F5D015
:1008E0000101035006E10C0E005C0001D8B4F2D007
:1008F0000101035006E10D0E005C0001D8B4EFD0F9
:100900000101035006E10E0E005C0001D8B4ECD0EA
:100910000101030E035C06E1E80E005C0001D8B49F
:10092000E8D00101030E035C06E1E90E005C000162
:10093000D8B4E5D00101030E035C06E1EA0E005CC9
:100940000001D8B4E1D00101030E035C06E1EB0E17
:10095000005C0001D8B4DDD00101030E035C06E1A8
:10096000EC0E005C0001D8B4D9D00101030E035C89
:1009700006E1ED0E005C0001D8B4D5D00101030EF4
:10098000035C06E1EE0E005C0001D8B4D1D0010199
:10099000030E035C06E1EF0E005C0001D8B4CED07C
:1009A0000101030E035C06E1F00E005C0001D8B407
:1009B000CBD00101030E035C06E1F10E005C0001E7
:1009C000D8B4C8D00101030E035C06E1F20E005C4E
:1009D0000001D8B4C5D00101030E035C06E1F30E9B
:1009E000005C0001D8B4C2D00101030E035C06E133
:1009F000F40E005C0001D8B4BFD00101030E035C0B
:100A000006E1F50E005C0001D8B4BCD00101030E74
:100A1000035C06E1F60E005C0001D8B4B9D0010118
:100A2000030E035C06E1F70E005C0001D8B4B6D0FB
:100A30000101BBD0036A3BC001F003C002F0BAD091
:100A4000036A3CC001F003C002F0B4D0036A3DC0A9
:100A500001F003C002F0AED0036A3EC001F003C053
:100A600002F0A8D0036A3FC001F003C002F0A2D098
:100A7000036A40C001F003C002F09CD0036A41C089
:100A800001F003C002F096D0036A42C001F003C037
:100A900002F090D035C003F03450342AD8B4352A4F
:100AA000016E03C002F086D039C066F138C065F12E
:100AB000396A386A65C101F066C102F000017AD076
:100AC00036C001F037C002F075D02EC001F02FC043
:100AD00002F070D030C001F031C002F06BD032C0F3
:100AE00001F033C002F066D090D6000E016E026EA7
:100AF00061D0036A23C001F003C002F05BD024C0C0
:100B000001F025C002F056D0500E016E000E026EAC
:100B100051D0440E016E000E026E4CD04C0E016E90
:100B2000000E026E47D0010E016E000E026E42D022
:100B3000036A21C001F003C002F03CD0036A22C066
:100B400001F003C002F036D0036A26C001F003C0F2
:100B500002F030D0036A27C001F003C002F02AD0AF
:100B6000036A28C001F003C002F024D0036A29C040
:100B700001F003C002F01ED0036A2AC001F003C0D6
:100B800002F018D0036A2BC001F003C002F012D0AB
:100B9000036A2CC001F003C002F00CD0036A2DC020
:100BA00001F003C002F006D00101FF0E016E026EDB
:100BB000000100D000EF06F058C161F157C162F1A9
:100BC000EDDDD89001015B35616F5C35626F61C10D
:100BD00063F10001CFDD01015E6B5D6B5E515C5D19
:100BE00022E303E15B515D5D1EE25D515925616FBA
:100BF0005E515A21626F646F61C163F100010DD6CD
:100C000002C060F101C05FF160C161F160C163F1D8
:100C1000B1DD5FC161F15FC163F1ACDD01015D2B4D
:100C2000D8B45E2BDBD70001CADDACEF08F03A5236
:100C30001BE001015D51E80809E15E51030806E18E
:100C40005FC123F0000E016EE4D10DD05D51E908C3
:100C50000AE15E51030807E160C125F05FC124F09D
:100C6000000E016ED6D1000101015D51006E5E5192
:100C7000036E035005E100520001D8B4B8D0010161
:100C8000035006E1010E005C0001D8B4BCD00101A4
:100C9000035006E1020E005C0001D8B4C0D001018F
:100CA000035006E1030E005C0001D8B4C4D001017A
:100CB000035006E1040E005C0001D8B4C8D0010165
:100CC000035006E1050E005C0001D8B4CCD0010150
:100CD000035006E1060E005C0001D8B4D0D001013B
:100CE000035006E1070E005C0001D8B4D4D0010126
:100CF000030E035C06E1EE0E005C0001D8B4D7D011
:100D00000101030E035C06E1EF0E005C0001D8B4A4
:100D1000DAD00101030E035C06E1F00E005C000175
:100D2000D8B4DDD00101030E035C06E1F10E005CD6
:100D30000001D8B4E0D00101030E035C06E1F20E1D
:100D4000005C0001D8B4E3D00101030E035C06E1AE
:100D5000F30E005C0001D8B4E6D00101030E035C81
:100D600006E1F40E005C0001D8B4E9D00101030EE5
:100D7000035C06E1F50E005C0001D8B4ECD0010183
:100D8000030E035C06E1F60E005C0001D8B4EFD060
:100D90000101030E035C06E1F70E005C0001D8B40C
:100DA000F2D00101070E035C06E1CD0E005C0001EC
:100DB000D8B4F5D00101070E035C06E1CE0E005C4D
:100DC0000001D8B4F6D00101070E035C06E1CF0E96
:100DD000005C0001D8B4FAD001014E0E035C06E1BC
:100DE0001F0E005C0001D8B4FED001010DD101013D
:100DF000605303E15F51010803E2030E016E09D164
:100E00005FC13BF004D10101605303E15F51010870
:100E100003E2030E016EFDD05FC13CF0F8D001018A
:100E2000605303E15F51010803E2030E016EF1D04C
:100E30005FC13DF0ECD00101605303E15F51010857
:100E400003E2030E016EE5D05FC13EF0E0D0010188
:100E5000605303E15F51010803E2030E016ED9D034
:100E60005FC13FF0D4D00101605303E15F5101083D
:100E700003E2030E016ECDD05FC140F0C8D0010186
:100E8000605303E15F51010803E2030E016EC1D01C
:100E90005FC141F0BCD00101605303E15F51010823
:100EA00003E2030E016EB5D05FC142F0B0D0010184
:100EB000605303E15F517F0803E2030E016EA9D086
:100EC0005FC121F0A4D00101605303E15F5101082B
:100ED00003E2030E016E9DD05FC122F098D00101A4
:100EE000605303E15F51010803E2030E016E91D0EC
:100EF0005FC126F08CD00101605303E15F5101080E
:100F000003E2030E016E85D05FC127F080D001019E
:100F1000605303E15F51010803E2030E016E79D0D3
:100F20005FC128F074D00101605303E15F510108F3
:100F300003E2030E016E6DD05FC129F068D001019C
:100F4000605303E15F51010803E2030E016E61D0BB
:100F50005FC12AF05CD00101605303E15F510108D9
:100F600003E2030E016E55D05FC12BF050D001019A
:100F7000605303E15F51010803E2030E016E49D0A3
:100F80005FC12CF044D00101605303E15F510108BF
:100F900003E2030E016E3DD05FC12DF038D0010198
:100FA0005F2D02D0605303E0030E016E32D0FF00CC
:100FB0002ED001015F2D02D0605303E0030E016EBD
:100FC00028D000012BEC03F0010121D001015F2D9D
:100FD00002D0605303E0030E016E1BD0000102EC4F
:100FE00003F0010114D001015F510A0803E16051CF
:100FF000070804E03A6A030E016E0BD0010E3A6E48
:10100000C80E436E446A03D0020E016E02D0000E79
:10101000016E0001120059C161F1060E0101626FFB
:101020000001CEEC03F05BC15EF15BC163F1BAEC91
:1010300003F05AC15EF15AC163F1BAEC03F05DC12D
:101040005EF15DC163F1BAEC03F05CC15EF15CC1BD
:1010500063F1BAEC03F0DFEC03F0E5EF08F057C101
:1010600061F1100E0101626F0001CEEC03F059C175
:101070005CF159C163F1BAEC03F058C15CF158C19D
:1010800063F1BAEC03F05BC15CF15BC163F1BAECF4
:1010900003F05AC15CF15AC163F1BAEC03F0DFEC22
:1010A00003F044EF09F07FEF03F00152D8B40BD105
:1010B00021504D5CD8A4FCD02E3C03D02F3C01D055
:1010C00003D02E2AD8B42F2A140E436E446A4F50F0
:1010D000030A08E0070A06E0020A3FE0160AD8B44D
:1010E00075D0D4D051C052F152C051F153C054F117
:1010F00054C053F1010153515125576F545152219E
:10110000586F52C15AF151C159F15C6F57C15BF12F
:10111000000190EF03F0015212E121C057F10101EB
:10112000596B4FC058F1020E5A6F0001F5EC03F0F5
:10113000336A020E326E640E446E436A0DD04FC0A5
:1011400057F121C058F152C15AF151C159F154C15E
:101150005CF153C15BF130D5AAD051C052F152C0FD
:1011600051F153C058F154C057F152C15EF151C111
:101170005DF153C060F154C05FF159DD01C055F11C
:101180000101555312E021C057F1596B4FC058F17E
:1011900055C15AF10001F5EC03F0336A55C132F044
:1011A000640E446E436A11D0010153C058F154C01B
:1011B00057F121C059F152C15BF151C15AF153C0ED
:1011C0005DF154C05CF1000126D771D051C052F1DD
:1011D00052C051F153C054F154C053F10101566B48
:1011E000545303E15351565D41E256515125576F17
:1011F000000E5221586FD8905635050F510FE96EE9
:10120000EA6AD8B0EA2AEFCF59F1D8905635060FDE
:10121000510FE96EEA6AD8B0EA2AEFCF5AF159C104
:101220005CF15AC15BF158C15EF157C15DF159C122
:1012300060F15AC15FF10001FADC01C055F1010112
:10124000555312E021C057F1596B4FC058F155C1A9
:101250005AF10001F5EC03F0336A55C132F0640E27
:10126000446E436A010102D0562BBAD755530CE1A4
:1012700021C057F152C159F151C158F154C15BF12C
:1012800053C15AF10001EBD6000111D021C057F132
:101290000101596B4FC058F1010E5A6F0001F5EC76
:1012A00003F0336A010E326E640E446E436A0BD053
:1012B000303C03D0313C01D003D0302AD8B4312A9D
:1012C000140E436E446EF4EF09F0F86AD09E078E58
:1012D000EA6AE96A620ED36E9B6A646AA7960C0E8C
:1012E000AF6EA20EAC6E900EAB6EB986220E7B6E08
:1012F000000E7C6EA60EBA6E900EA66E466A456A09
:10130000486A476A49904A6A0F015C51800B5C6FDA
:10131000000E5D6FC196C198C19A5E6B5F6B1A6AD1
:101320001B6A000138EF02F042EF03F021507F0802
:1013300002E22BEC03F0AB8EAB8878EF03F0436A4C
:1013400043C044F00101506B5051070819E3036A90
:1013500050513B0F016E000E032203C052F1036A8D
:101360005051260FE96E000E0320EA6EEFCF53F1C5
:1013700052C1EAFF01C0E9FF53C1EFFF502BE4D790
:10138000506B04003B5202E1899E01D0898E929EEF
:101390003C5202E1899C01D0898C929C3D5202E131
:1013A0008B9001D08B8094903E5202E18B9201D0C1
:1013B0008B8294923F5202E18B9401D08B8494945F
:1013C000405202E18B9601D08B869496415202E105
:1013D0008B9801D08B889498425202E18A9601D072
:0E13E0008A86939600015FD60101CBD70300E9
:020000040030CA
:0E0000001508663F000991000FC00FE00F4089
:00000001FF
;PIC18F25K80
;CRC=028F  CREATED="06-Nov-13 06:07"
